{
  "contractName": "Bookstore",
  "abi": [
    {
      "anonymous": false,
      "inputs": [
        {
          "indexed": false,
          "name": "bookId",
          "type": "uint256"
        },
        {
          "indexed": false,
          "name": "publisher",
          "type": "address"
        },
        {
          "indexed": false,
          "name": "amount",
          "type": "uint256"
        }
      ],
      "name": "bookPublished",
      "type": "event",
      "signature": "0x2477ea3da1018591cc51b9c018b30e181fbc2175bd52d96cc3284c237f19ec67"
    },
    {
      "anonymous": false,
      "inputs": [
        {
          "indexed": false,
          "name": "bookId",
          "type": "uint256"
        },
        {
          "indexed": false,
          "name": "buyer",
          "type": "address"
        },
        {
          "indexed": false,
          "name": "amount",
          "type": "uint256"
        }
      ],
      "name": "bookPurchased",
      "type": "event",
      "signature": "0x5dfe903babfa2290fe4412b51dc55080371656877e38cde0cc38808ee7564b1b"
    },
    {
      "constant": false,
      "inputs": [
        {
          "name": "_bookName",
          "type": "string"
        },
        {
          "name": "_bookHash",
          "type": "bytes32"
        },
        {
          "name": "_coverHash",
          "type": "bytes32"
        },
        {
          "name": "_descriptionHash",
          "type": "bytes32"
        },
        {
          "name": "_amount",
          "type": "uint256"
        }
      ],
      "name": "store",
      "outputs": [],
      "payable": false,
      "stateMutability": "nonpayable",
      "type": "function",
      "signature": "0x38c70e69"
    },
    {
      "constant": true,
      "inputs": [
        {
          "name": "_bookId",
          "type": "uint256"
        }
      ],
      "name": "retreive",
      "outputs": [
        {
          "name": "",
          "type": "string"
        },
        {
          "name": "",
          "type": "bytes32"
        },
        {
          "name": "",
          "type": "bytes32"
        },
        {
          "name": "",
          "type": "bytes32"
        },
        {
          "name": "",
          "type": "uint256"
        },
        {
          "name": "",
          "type": "address"
        }
      ],
      "payable": false,
      "stateMutability": "view",
      "type": "function",
      "signature": "0x5553afb6"
    },
    {
      "constant": true,
      "inputs": [],
      "name": "totalBooks",
      "outputs": [
        {
          "name": "",
          "type": "uint256"
        }
      ],
      "payable": false,
      "stateMutability": "view",
      "type": "function",
      "signature": "0x6ec4f4bf"
    },
    {
      "constant": false,
      "inputs": [
        {
          "name": "_bookId",
          "type": "uint256"
        }
      ],
      "name": "Purchase",
      "outputs": [],
      "payable": true,
      "stateMutability": "payable",
      "type": "function",
      "signature": "0xe2aeb2ae"
    }
  ],
  "bytecode": "0x6080604052600060015534801561001557600080fd5b50610717806100256000396000f3fe608060405260043610610062576000357c0100000000000000000000000000000000000000000000000000000000900463ffffffff16806338c70e69146100675780635553afb6146101575780636ec4f4bf1461025a578063e2aeb2ae14610285575b600080fd5b34801561007357600080fd5b50610155600480360360a081101561008a57600080fd5b81019080803590602001906401000000008111156100a757600080fd5b8201836020820111156100b957600080fd5b803590602001918460018302840111640100000000831117156100db57600080fd5b91908080601f016020809104026020016040519081016040528093929190818152602001838380828437600081840152601f19601f820116905080830192505050505050509192919290803590602001909291908035906020019092919080359060200190929190803590602001909291905050506102b3565b005b34801561016357600080fd5b506101906004803603602081101561017a57600080fd5b81019080803590602001909291905050506103af565b60405180806020018781526020018681526020018581526020018481526020018373ffffffffffffffffffffffffffffffffffffffff1673ffffffffffffffffffffffffffffffffffffffff168152602001828103825288818151815260200191508051906020019080838360005b8381101561021a5780820151818401526020810190506101ff565b50505050905090810190601f1680156102475780820380516001836020036101000a031916815260200191505b5097505050505050505060405180910390f35b34801561026657600080fd5b5061026f6104c0565b6040518082815260200191505060405180910390f35b6102b16004803603602081101561029b57600080fd5b81019080803590602001909291905050506104ca565b005b60c0604051908101604052808681526020018581526020018481526020018381526020018281526020013373ffffffffffffffffffffffffffffffffffffffff16815250600080600160008154809291906001019190505581526020019081526020016000206000820151816000019080519060200190610335929190610646565b506020820151816001015560408201518160020155606082015181600301556080820151816004015560a08201518160050160006101000a81548173ffffffffffffffffffffffffffffffffffffffff021916908373ffffffffffffffffffffffffffffffffffffffff1602179055509050505050505050565b606060008060008060008060008089815260200190815260200160002090508060000181600101548260020154836003015484600401548560050160009054906101000a900473ffffffffffffffffffffffffffffffffffffffff16858054600181600116156101000203166002900480601f0160208091040260200160405190810160405280929190818152602001828054600181600116156101000203166002900480156104a05780601f10610475576101008083540402835291602001916104a0565b820191906000526020600020905b81548152906001019060200180831161048357829003601f168201915b505050505095508090509650965096509650965096505091939550919395565b6000600154905090565b600080600083815260200190815260200160002090508060040154341015151561055c576040517f08c379a00000000000000000000000000000000000000000000000000000000081526004018080602001828103825260158152602001807f436865636b2074686520626f6f6b20616d6f756e74000000000000000000000081525060200191505060405180910390fd5b8060050160009054906101000a900473ffffffffffffffffffffffffffffffffffffffff1673ffffffffffffffffffffffffffffffffffffffff166108fc82600401549081150290604051600060405180830381858888f193505050501580156105ca573d6000803e3d6000fd5b507f5dfe903babfa2290fe4412b51dc55080371656877e38cde0cc38808ee7564b1b82338360040154604051808481526020018373ffffffffffffffffffffffffffffffffffffffff1673ffffffffffffffffffffffffffffffffffffffff168152602001828152602001935050505060405180910390a15050565b828054600181600116156101000203166002900490600052602060002090601f016020900481019282601f1061068757805160ff19168380011785556106b5565b828001600101855582156106b5579182015b828111156106b4578251825591602001919060010190610699565b5b5090506106c291906106c6565b5090565b6106e891905b808211156106e45760008160009055506001016106cc565b5090565b9056fea165627a7a723058206e20117fb23ae799aceec4929a6f9c5fbb5c61a494b7c84f52af1048d07ee99f0029",
  "source": "pragma solidity ^0.5.0;\n\ncontract Bookstore {\n    event bookPublished (uint256 bookId, address publisher, uint256 amount);\n    event bookPurchased (uint256 bookId, address buyer, uint256 amount);\n    struct Book {\n        string bookName;\n        bytes32 bookHash;\n        bytes32 coverHash;\n        bytes32 descriptionHash;\n        uint256 amount;\n        address payable bookOwner;\n    }\n     mapping (uint256 => Book) BookList;\n     uint bookId=0;\n     function store(string memory _bookName, bytes32 _bookHash, bytes32 _coverHash, bytes32 _descriptionHash, uint256 _amount) public {\n        BookList[bookId++] = Book(_bookName, _bookHash, _coverHash, _descriptionHash, _amount, msg.sender);\n    }\n    function retreive(uint256 _bookId) public view returns (string memory, bytes32, bytes32, bytes32, uint256, address) {\n        Book storage c = BookList[_bookId];\n        return (c.bookName, c.bookHash, c.coverHash, c.descriptionHash, c.amount, c.bookOwner);\n    }\n    function totalBooks() public view returns(uint256) {\n        return (bookId);\n    }\n    function Purchase (uint256 _bookId) public payable {\n      Book storage Books = BookList[_bookId];\n      require (msg.value >= Books.amount, \"Check the book amount\");\n      Books.bookOwner.transfer(Books.amount);\n      emit bookPurchased(_bookId, msg.sender, Books.amount);\n    }\n  }",
  "sourcePath": "/home/apeksha/Bookstore/src/contracts/Bookstore.sol",
  "compiler": {
    "name": "solc",
    "version": "0.5.0+commit.1d4f565a.Emscripten.clang"
  },
  "schemaVersion": "3.0.2",
  "updatedAt": "2020-06-20T14:22:22.437Z",
  "devdoc": {
    "methods": {}
  },
  "userdoc": {
    "methods": {}
  }
}